:020000022000DC
:10600000000004209595020065820200BD87020011
:1060100065820200658202006582020000000000C5
:106020000000000000000000000000006582020087
:1060300065820200000000006582020065820200A5
:1060400065940200658202008D9902003998020071
:106050004998020065820200E5850200658202001F
:10606000658202006D9902007D990200659502002B
:10607000658202006582020065820200658202007C
:10608000CD9D0200759502006582020065820200C6
:106090006582020065820200B198020065820200FA
:1060A000658202006582020065820200658202004C
:1060B000658202006582020000000000000000000E
:1060C0006582020065820200658202005998020022
:1060D000859502006582020065820200AD9902008A
:1060E0009D99020065820200658202008598020087
:0860F0000000000065820200BF
:1070000040F8044B40F8045B40F8046B40F8047B04
:1070100040F8048B40F8049B40F804AB40F804BBF4
:1070200040F804CB40F804DB6846704781F000412B
:1070300002E000BF83F0004330B54FEA41044FEA5D
:10704000430594EA050F08BF90EA020F1FBF54EAF8
:10705000000C55EA020C7FEA645C7FEA655C00F094
:10706000E2804FEA5454D4EB5555B8BF6D420CDD65
:107070002C4480EA020281EA030382EA000083EAE8
:10708000010180EA020281EA0303362D88BF30BD88
:1070900011F0004F4FEA01314FF4801C4CEA1131DE
:1070A00002D0404261EB410113F0004F4FEA03333D
:1070B0004CEA133302D0524263EB430394EA050FC8
:1070C00000F0A780A4F10104D5F1200E0DDB02FA37
:1070D0000EFC22FA05F2801841F1000103FA0EF2CB
:1070E000801843FA05F359410EE0A5F120050EF191
:1070F000200E012A03FA0EFC28BF4CF0020C43FAC2
:1071000005F3C01851EBE37101F0004507D54FF0CE
:10711000000EDCF1000C7EEB00006EEB0101B1F51E
:10712000801F1BD3B1F5001F0CD349085FEA300064
:107130004FEA3C0C04F101044FEA445212F5800F6F
:1071400080F09A80BCF1004F08BF5FEA500C50F10C
:10715000000041EB045141EA050130BD5FEA4C0CEF
:10716000404141EB0101013C28BFB1F5801FE9D24C
:1071700091F0000F04BF01460020B1FA81F308BF6F
:107180002033A3F10B03B3F120020CDA0C3208DD3B
:1071900002F1140CC2F10C0201FA0CF021FA02F116
:1071A0000CE002F11402D8BFC2F1200C01FA02F186
:1071B00020FA0CFCDCBF41EA0C019040E41AA2BFAB
:1071C00001EB0451294330BD6FEA04041F3C1CDA73
:1071D0000C340EDC04F11404C4F1200220FA04F093
:1071E00001FA02F340EA030021FA04F345EA03013D
:1071F00030BDC4F10C04C4F1200220FA02F001FAFF
:1072000004F340EA0300294630BD21FA04F0294680
:1072100030BD94F0000F83F4801306BF81F4801119
:107220000134013D4EE77FEA645C18BF7FEA655C8C
:1072300029D094EA050F08BF90EA020F05D054EA5E
:10724000000C04BF1946104630BD91EA030F1EBF63
:107250000021002030BD5FEA545C05D14000494167
:1072600028BF41F0004130BD14F580043CBF01F55A
:10727000801130BD01F0004545F0FE4141F4700140
:107280004FF0000030BD7FEA645C1ABF194610461B
:107290007FEA655C1CBF0B46024650EA013406BF1C
:1072A00052EA033591EA030F41F4002130BD00BFDB
:1072B00090F0000F04BF0021704730B54FF4806498
:1072C00004F132044FF000054FF0000150E700BF19
:1072D00090F0000F04BF0021704730B54FF4806478
:1072E00004F1320410F0004548BF40424FF0000165
:1072F0003EE700BF42004FEAE2014FEA31014FEAA8
:1073000002701FBF12F07F4393F07F4F81F06051F6
:10731000704732F07F4208BF704793F07F4F04BF41
:1073200041F40021704730B54FF4607401F000451E
:1073300021F000411CE700BF50EA010208BF70477E
:1073400030B54FF000050AE050EA010208BF70476F
:1073500030B511F0004502D5404261EB41014FF4D8
:10736000806404F132045FEA915C3FF4D8AE4FF0E0
:1073700003025FEADC0C18BF03325FEADC0C18BFC3
:10738000033202EBDC02C2F1200300FA03FC20FA14
:1073900002F001FA03FE40EA0E0021FA02F1144461
:1073A000BDE600BF4FEA4102B2F1E04324BFB3F5AE
:1073B000001CDCF1FE5C0DD901F0004C4FEAC0026C
:1073C0004CEA5070B2F1004F40EB830008BF20F050
:1073D0000100704711F0804F21D113F13872BCBF0A
:1073E00001F00040704741F480114FEA5252C2F15F
:1073F0001802C2F1200C10FA0CF320FA02F018BFA8
:1074000040F001004FEAC1234FEAD32303FA0CFCFA
:1074100040EA0C0023FA02F34FEA4303CCE77FEA89
:10742000625307D150EA01331EBF4FF0FE4040F4D3
:107430004000704701F0004040F0FE4040F4000082
:10744000704700BF80F0004002E000BF81F00041C3
:1074500042001FBF5FEA410392EA030F7FEA226CFA
:107460007FEA236C6AD04FEA1262D2EB1363C1BF8A
:10747000D218414048404140B8BF5B42192B88BFF9
:10748000704710F0004F40F4000020F07F4018BF1C
:10749000404211F0004F41F4000121F07F4118BF3C
:1074A000494292EA030F3FD0A2F1010241FA03FCE4
:1074B00010EB0C00C3F1200301FA03F100F00043CC
:1074C00002D5494260EB4000B0F5000F13D3B0F194
:1074D000807F06D340084FEA310102F10102FE2A03
:1074E00051D2B1F1004F40EBC25008BF20F0010073
:1074F00040EA03007047490040EB0000013A28BF12
:10750000B0F5000FEDD2B0FA80FCACF1080CB2EB94
:107510000C0200FA0CF0AABF00EBC2505242184312
:10752000BCBFD0401843704792F0000F81F40001B7
:1075300006BF80F400000132013BB5E74FEA41038A
:107540007FEA226C18BF7FEA236C21D092EA030FF6
:1075500004D092F0000F08BF0846704790EA010F70
:107560001CBF0020704712F07F4F04D1400028BF9D
:1075700040F00040704712F100723CBF00F500007F
:10758000704700F0004343F0FE4040F400007047B5
:107590007FEA226216BF08467FEA23630146420261
:1075A00006BF5FEA412390EA010F40F48000704774
:1075B0004FF0000304E000BF10F0004348BF40421A
:1075C0005FEA000C08BF704743F0964301464FF056
:1075D00000001CE050EA010208BF70474FF00003B2
:1075E0000AE000BF50EA010208BF704711F00043F3
:1075F00002D5404261EB41015FEA010C02BF8446C3
:107600000146002043F0B64308BFA3F18053A3F521
:107610000003BCFA8CF2083AA3EBC25310DB01FA68
:1076200002FC634400FA02FCC2F12002BCF1004FEC
:1076300020FA02F243EB020008BF20F0010070477D
:1076400002F1200201FA02FCC2F1200250EA4C00D1
:1076500021FA02F243EB020008BF20EADC70704717
:107660007BB972B90029BEBF00204FF0004106E08F
:1076700008BF00281CBF6FF000414FF0FF3000F042
:107680001DBBADF1080C6DE904CE002909DB002B10
:107690001ADB00F081F8DDF804E0DDE9022304B034
:1076A0007047404261EB4101002B1BDB00F074F896
:1076B000DDF804E0DDE9022304B0404261EB410162
:1076C000524263EB43037047524263EB430300F0C3
:1076D00063F8DDF804E0DDE9022304B0404261EB29
:1076E00041017047524263EB430300F055F8DDF867
:1076F00004E0DDE9022304B0524263EB4303704728
:1077000053B94AB9002908BF00281CBF4FF0FF3108
:107710004FF0FF3000F0D2BAADF1080C6DE904CEA5
:1077200000F03AF8DDF804E0DDE9022304B0704728
:1077300007EE900AF5EEC07AF1EE10FA01D400F0EF
:107740000BB8F1EE677A08B517EE900A00F004F86E
:10775000404261EB410108BDD0B5FFF7CBFD0C4BBA
:10776000002206460F4600F07FF900F0A9FA044611
:10777000FFF79EFD074B002200F076F902460B460C
:1077800030463946FFF756FC00F09AFA2146D0BD44
:107790000000F03D0000F0412DE9F047089D04464F
:1077A0008E46002B4DD18A42944669D9B2FA82F2B4
:1077B00052B101FA02F3C2F1200120FA01F10CFAF0
:1077C00002FC41EA030E94404FEA1C48210CBEFB28
:1077D000F8F61FFA8CF708FB16E341EA034306FBB1
:1077E00007F199420AD91CEB030306F1FF3080F040
:1077F0001F81994240F21C81023E63445B1AA4B28D
:10780000B3FBF8F008FB103344EA034400FB07F72E
:10781000A7420AD91CEB040400F1FF3380F00A816F
:10782000A74240F207816444023840EA0640E41B64
:1078300000261DB1D4400023C5E900433146BDE810
:10784000F0878B4209D9002D00F0EF800026C5E9B2
:10785000000130463146BDE8F087B3FA83F6002ECA
:107860004AD18B4202D3824200F2F980841A61EB42
:10787000030301209E46002DE0D0C5E9004EDDE760
:1078800002B9FFDEB2FA82F2002A40F09280A1EB48
:107890000C014FEA1C471FFA8CFE0126200CB1FB9D
:1078A000F7F307FB131140EA01410EFB03F0884296
:1078B00008D91CEB010103F1FF3802D2884200F223
:1078C000CB804346091AA4B2B1FBF7F007FB1011B5
:1078D00044EA01440EFB00FEA64508D91CEB040453
:1078E00000F1FF3102D2A64500F2BB800846A4EBAE
:1078F0000E0440EA03409CE7C6F12007B34022FA99
:1079000007FC4CEA030C20FA07F401FA06F31C43C7
:10791000F9404FEA1C4900FA06F3B1FBF9F8200CD4
:107920001FFA8CFE09FB181140EA014108FB0EF01A
:10793000884202FA06F20BD91CEB010108F1FF3A6A
:1079400080F08880884240F28580A8F10208614476
:10795000091AA4B2B1FBF9F009FB101144EA014184
:1079600000FB0EFE8E4508D91CEB010100F1FF342F
:107970006CD28E456AD90238614440EA0840A0FBC7
:107980000294A1EB0E01A142C846A64656D353D09D
:107990005DB1B3EB080261EB0E0101FA07F722FAC1
:1079A00006F3F1401F43C5E9007100263146BDE8EA
:1079B000F087C2F12003D8400CFA02FC21FA03F34D
:1079C000914001434FEA1C471FFA8CFEB3FBF7F0CE
:1079D00007FB10360B0C43EA064300FB0EF69E42F3
:1079E00004FA02F408D91CEB030300F1FF382FD28C
:1079F0009E422DD9023863449B1B89B2B3FBF7F634
:107A000007FB163341EA034106FB0EF38B4208D90C
:107A10001CEB010106F1FF3816D28B4214D9023E4D
:107A20006144C91A46EA004638E72E46284605E76B
:107A30000646E3E61846F8E64B45A9D2B9EB02083C
:107A400064EB0C0E0138A3E74646EAE7204694E7CC
:107A50004046D1E7D0467BE7023B614432E73046FF
:107A600009E76444023842E770B54FF0FF0C4CF46C
:107A7000E06C1CEA11541DBF1CEA135594EA0C0F6C
:107A800095EA0C0F00F0DEF82C4481EA030621EAA7
:107A90004C5123EA4C5350EA013518BF52EA0335E2
:107AA00041F4801143F4801338D0A0FB02CE4FF094
:107AB0000005E1FB02E506F00042E0FB03E54FF0C4
:107AC0000006E1FB03569CF0000F18BF4EF0010EBC
:107AD000A4F1FF04B6F5007F64F5407404D25FEAB8
:107AE0004E0E6D4146EB060642EAC62141EA55516B
:107AF0004FEAC52040EA5E504FEACE2EB4F1FD0CAD
:107B000088BFBCF5E06F1ED8BEF1004F08BF5FEA2A
:107B1000500E50F1000041EB045170BD06F00046DC
:107B200046EA010140EA020081EA0301B4EB5C0489
:107B3000C2BFD4EB0C0541EA045170BD41F4801181
:107B40004FF0000E013C00F3AB8014F1360FDEBFA6
:107B5000002001F0004170BDC4F10004203C35DA82
:107B60000C341BDC04F11404C4F1200500FA05F305
:107B700020FA04F001FA05F240EA020001F00042A6
:107B800021F0004110EBD37021FA04F642EB06011C
:107B90005EEA430E08BF20EAD37070BDC4F10C0446
:107BA000C4F1200500FA04F320FA05F001FA04F20A
:107BB00040EA020001F0004110EBD37041F10001F6
:107BC0005EEA430E08BF20EAD37070BDC4F1200501
:107BD00000FA05F24EEA020E20FA04F301FA05F269
:107BE00043EA020321FA04F001F0004121FA04F211
:107BF00020EA020000EBD3705EEA430E08BF20EAE1
:107C0000D37070BD94F0000F0FD101F0004640001A
:107C100041EB010111F4801F08BF013CF7D041EA9C
:107C2000060195F0000F18BF704703F000465200A0
:107C300043EB030313F4801F08BF013DF7D043EA71
:107C40000603704794EA0C0F0CEA135518BF95EA27
:107C50000C0F0CD050EA410618BF52EA4306D1D1AE
:107C600081EA030101F000414FF0000070BD50EACD
:107C7000410606BF1046194652EA430619D094EA57
:107C80000C0F02D150EA013613D195EA0C0F05D141
:107C900052EA03361CBF104619460AD181EA030195
:107CA00001F0004141F0FE4141F470014FF000004D
:107CB00070BD41F0FE4141F4780170BD704700BFD6
:107CC0004A0011D212F5001211D20DD56FF478735B
:107CD000B3EB62520ED44FEAC12343F0004343EAB0
:107CE000505323FA02F070474FF00000704750EAFB
:107CF000013002D14FF0FF3070474FF00000704765
:107D00002DE9F8439DF834C080F84AC00446CCF110
:107D1000080C80F84EC0002084F854006060BDF963
:107D20002800A4F85600BDF92C00A4F858009DF8CE
:107D3000380084F84F009DF83C0084F851009FED16
:107D4000307B9DF8400084F84B009DF8440084F897
:107D500052009DF84800BDF82050BDF82470BDF8D1
:107D6000306084F8530084ED027B91469846A9B1B7
:107D70008B0740D10868244B984226D0234B984269
:107D80002ED0234B984236D1224820612248606190
:107D90002248A0612248E0612248206221602249F5
:107DA0008C420DD0A4F84090A4F84280A4F846502C
:107DB000A4F8487031462046BDE8F84320F060BA88
:107DC0004146484654F086F8ECE7184820611848C8
:107DD00060611848A0611848E06118482062DDE73A
:107DE00017482061174860611748A0611748E06193
:107DF00017482062D2E7174837F06CFEAFF30080D7
:107E00000000000000000000F05D09008CF4080094
:107E10002CF6080045DC030025DC030015DC03001C
:107E200075DC03003DDC03006809012051E9030013
:107E300095A1030039E9030081E9030049E9030042
:107E400011DA0300E5D90300B5D9030049DA0300CC
:107E5000FDD90300349F090030B5144685B019A33D
:107E6000D3E90023FFF74CFC0546A0F16150A0F5D3
:107E7000351001A9A0F5607055F076F89DF807302F
:107E80009DF806109DF808201B0443EA41539DF815
:107E9000091043EAC2239DF80A2043EA411343EA4A
:107EA0005203BDF804200649A2F2BC7225F0010578
:107EB00043EA4263A5FB0101236005B030BD00BF6A
:107EC00000CA9A3B00CA9A3B00000000DAB32DE9D1
:107ED000F0414C1E84B00646A518102100F1F007B1
:107EE0004FF0000810290FD00A46013104AB1A44A4
:107EF00014F8013F12F8102CAC4283EA02032370FD
:107F0000F0D104B0BDE8F08138687968BA68FB68E0
:107F1000EC46ACE80F003146684600F0C9F806F5BB
:107F200080710F2211F8013DFF2B06D0324401333E
:107F300082F8F03001210022D8E7013A531C81F881
:107F40000080EFD1F6E77047182A2DE9F04FC0F80E
:107F500000215ED0202A00F08880102A7FD00023E4
:107F60001D46A0F804311A461946434EDFF80CB1FD
:107F700005EB81032FE016F804A01BF8099016F812
:107F80000E4016F80CE016F808C08AEA09088A1AAA
:107F900005EB820915F8222088EA020883F80080A0
:107FA00099F801200433544003F8034C99F8022057
:107FB0008EEA020E03F802EC99F803208CEA020C18
:107FC00003F801CC90F8042101310132B1EB820FAA
:107FD00043D290F80521B1FBF2F902FB191A13F80C
:107FE000048C13F8034C13F802EC13F801CCBAF12B
:107FF000000FC0D0D0F80071202FC8D1BAF1040F03
:10800000C5D116F80880345D16F80EE016F80CC0DD
:10801000BDE740F20C63A0F8043105460B468446E8
:1080200000241A788CF800205A788CF801209A786D
:108030008CF80220DA788CF8032090F805210134BE
:108040009442114603F104030CF1040CE9D390F8B7
:1080500004310133B2EB830F87D3BDE8F08F40F2D8
:108060000A43A0F804310546D8E740F60E03A0F80D
:1080700004310546D2E700BFBC70090054AE0800C9
:1080800030B500010C1D01F11405231F02EB000C9B
:1080900019781CF801EB81EA0E0103F8011BA342D9
:1080A000F6D11C1DAC4200F10400EED130BD00BF82
:1080B0002DE9F04FD1F8003187B0A3F11002102A5A
:1080C0000491824600F2C7800123934003F00133FC
:1080D00023F08073002B14BF0B46002307EE903A69
:1080E00017EE902A51460020FFF7CAFF01230293A2
:1080F0000AF104030593DFF868B10AF11003019354
:10810000D0460598C6464246002312F823101BF8B5
:10811000011002F823100133042BF6D101329042F2
:10812000F2D198F80D2098F8011098F8023098F8DC
:10813000090088F8092098F8062098F80AA088F81D
:108140000D1088F80A3098F80E1098F8033088F867
:108150000E2098F80B2098F8054098F80F9088F8B2
:108160000F2098F8072088F80730049B88F80B2028
:1081700088F8014088F8050088F802A088F8061001
:1081800088F8039093F80431029A93425AD0CDF8BC
:108190000C809EF800508AEA090785EA040C84EAFC
:1081A0000A0885EA09038CEA070600934FEADC1007
:1081B0004FEAD811FA09DB09744086EA0A0A86EA0E
:1081C0000909754000EB4000009E01EB410102EB04
:1081D000420203EB430300EBC00001EBC10102EBE1
:1081E000C20203EBC30383EA460380EA4C0081EA40
:1081F000480182EA470283EA09096840019B8EF838
:1082000000004C4082EA0A0A8EF801408EF802A073
:108210008EF803900EF1040E734506D09EF80140CF
:108220009EF802A09EF80390B3E7DDE9024817EE3E
:10823000902A20464146FFF723FF20460130C3B273
:1082400002935EE717EE902A0298414607B0BDE818
:10825000F04FFFF715BF002307EE903A40E700BF4D
:10826000BC700900FEE700BF2DE9F04F4FEAA308FC
:1082700003F00304644B03EB841943461C2B86462E
:108280006248A8BF1C2350F824A0D9F80400033387
:1082900089B023EAE37318410590D9F80800184122
:1082A0000690D9F80C00B8F11F0FC34640FA03F34B
:1082B000A8BF4FF01F0B079300205B460490C346F6
:1082C000C846D1469A460EE008AC04EB850555F841
:1082D000104C002B40EA0400B8BF6442013A41F858
:1082E000044B00F08E805EF8043B23F0004424F041
:1082F000030423F00045002CE6D023F0004424F0D2
:108300000F0454B958F82540BBF1000FBABFCAF1A9
:108310000005AC4044FA0AF4DBE723F0004424F003
:108320003F0474B93A4C103D54F825504C4685FB37
:1083300004642546AAF10304002C57DB45FA04F433
:10834000C7E76C04B4F1006FB6BF6C0500250425C7
:10835000B4F1005F009503DA009D0235A40000959A
:10836000B4F1804F03DA009D013564000095294D7A
:10837000294E2A4FAC422A4DC8BFAC46294DD8BF22
:10838000B446294ED8BF2E46284DD8BF2F46284D7B
:108390000297284FD8BF2F46274D0197274FD8BFA8
:1083A0002F460397254686FB05756544264685FBC3
:1083B00006C6039F25463E4486FB05C5019F3D44F6
:1083C00085FB0464029F1E4D3C44009F55F82750D6
:1083D00084FB0565ED004C4685FB04642546194C7D
:1083E00054F82740AAEB0404002CA7DA66426FF089
:1083F000004444FA06F7AF42FFF66BAF05FA06F405
:1084000067E709B0BDE8F08F4C6209003C610900E4
:108410008C6109009979825A28482EB0B477F5FE0C
:10842000A4F633D3A9BDA02963218510591858FF9C
:108430008D496C23F0CEC2271BAA57598B40E946C1
:108440006C6109004C6109002DE9F04F9BBB12F0F3
:10845000010C2DD0D0F88012D0F88023D0F88041C4
:1084600049425242C0F88012C0F88023D0F88014EC
:10847000D0F880259C46D0F88036494252425B4273
:10848000C0F88014C0F88025D0F88010D0F880277C
:10849000C0F88036D0F880386442524249425B428C
:1084A000C0F88041C0F88010C0F88027C0F880383C
:1084B0006046BDE8F08F4FF00046DE4012F0010C40
:1084C00006F1FF36C3F11F0547D04FF0000C00F155
:1084D000800400F51068674654F8802C42FA05F9CC
:1084E0004FEAE27AB9EBE27F18BF86EA0A029A40C5
:1084F000BE4644F8802C82EAE27EAEEBE27ED0F803
:108500008020524242FA05FA4FEAE27BBAEBE27F60
:1085100018BF86EA0B029A40B946C0F8802082EA6A
:10852000E279A9EBE2790A684EEA090E4CEA0E0CF0
:1085300042FA05FEBEEBE27F4FEAE27918BF86EA17
:10854000090200F580709A40804541F8042B04F53B
:108550008074C1D16046BDE8F08F00F1800400F561
:10856000106E674654F8802C42FA05F94FEAE27A19
:10857000B9EBE27F18BF86EA0A029A40B84644F88F
:10858000802C82EAE278A8EBE278D0F8802042FAE8
:1085900005FA4FEAE27BBAEBE27F18BF86EA0B02EC
:1085A0009A40B946C0F8802082EAE279A9EBE279E4
:1085B0000A6848EA09084CEA080C42FA05F8B8EBE0
:1085C000E27F4FEAE27918BF86EA090200F580707F
:1085D0009A40864541F8042B04F58074C2D1604668
:1085E000BDE8F08F2DE9F04F0022164689B06C4BA4
:1085F0006C4C6D48CDE9022235460122196841B123
:10860000D4F80413114204D01D6019680191019936
:108610001643043383424FEA4202EFD1614BD3F851
:108620007C21002A6BD00022C3F87C21D3F87C3156
:1086300000934FF0A042009BD2F810255B4B0292B2
:10864000D3F810250392F3B2002B7AD100224FF019
:10865000FF33574EDFF85491CDE90622CDE90433BC
:10866000A6F15A08534C002514F9010B471C30D0D1
:10867000C0F3C20E08AB03EB0E0C00F007021CF8AF
:10868000103CD340D907C7B200F03F0021D508EB1A
:108690000003B90993F9283058F82330002B5CD037
:1086A00003295CD01F2887BF07F01F07CE46074667
:1086B0004FF0A04E1CF818CC0EEB87072CFA02F2F4
:1086C000D7F800C7D207CCF3014C3DD4BCF1030F5F
:1086D00054D0A642C8D18DB34FF0A0430299D3F82D
:1086E0001035D9F81025994202D10399914225D02D
:1086F000DDE906010293CDE903200591B2E7F3B26B
:10870000D3B12D4F01250024A30003F180432E4255
:1087100003F5C0434FEA45050BD0D3F8100557F8D1
:108720002420D3F81015C0F30520C1F3014102B194
:1087300090470134082CE7D1002E87DB09B0BDE853
:10874000F08F46F00046DCE7BCF1020FC1D10329EF
:1087500023D0002BBDD09847BBE70329B9D10DF139
:10876000180A4FF0010B1AF80EA00BFA02FB4AEAA6
:108770000B0A0DF1180B0BF80EA093E70329E8D1B3
:108780004FF4003CD7F8002722F44032013542EA8A
:108790000C02EDB2C7F80027DBE74FF4403CF1E7ED
:1087A0000061004000600040206100400003005074
:1087B000E6610120E46101208C61012008B50220FE
:1087C0004AF0B6FF2DE9F04FB7B0CDE91023409B3A
:1087D0001B68002B0C4640F3B48401F1240303937F
:1087E000A0F10C03079300920023A2F59062CDE95B
:1087F00001320493119A03999369526906922439BC
:10880000059133B1409B01995B698B42C8BF00223F
:108810000692409B409A1B690199D2680A928B424A
:1088200000F38684069B43EA0205409B9B69062B66
:1088300000F36684079A039CC3F107071346483385
:1088400000200F9319460B971BAE034694468A6887
:108850003A41D31A4A683A41181AD31A54F8042DE7
:10886000306208393A418C4546F8043D2260EED129
:108870001B9E149FDDF858C0129B1599139C721013
:10888000DDE919690892A7EB0C02A2EB09005A1066
:108890000992189A0D90C2EB630E179B9B1B0C93C9
:1088A00007EB0C02834B83FB0101179BE01A801B33
:1088B000804B83FB0080804B0E90924683FB0A8A9C
:1088C0007E484F4480FB0787A9EB0C0983FB09C94D
:1088D00080FB02C2DDF8308000F1705000F54C20C2
:1088E000C34600F2CB2080FB0BCB754B264483FBA9
:1088F00006C6179B04EB030C80FB0C4C70484346E8
:1089000080FB0343099C0D98A046189C5B0008EB74
:1089100064087C00C3EB4C0304EB4A040EEB600CD0
:108920004FEA460AAEEB000E08EB41060AEB4B0A93
:10893000CDF858E0520006EB040EC2EB4902A8EB5A
:108940004101D64404EB020BCDF848E001EB020EE6
:108950003244A3EB0A090C44A6EB0B07D21AA1EB95
:108960000B01A1EB09014F4418920E9A159117972C
:108970001F991D9FDDF878800EEB03060CEB420378
:1089800014961393219E7B1A0899239FA4EB0A0047
:1089900009901A90A1EB0609ACEB42001D991F9AB1
:1089A00019908818229A2099DF1B0C97891A1C9F0E
:1089B000404A82FB0838209EA7EB060E229EAEEBB3
:1089C000060E82FB0E3E3C4E834686FB0B3B1D9AF9
:1089D000239B3A4CD31884FB0323239A94461F9A73
:1089E000ACEB020C86FB0C2C064684FB062604F13D
:1089F000705404F54C240D968A4604F2CB2484FB73
:108A00000A2A229A2E48BA1880FB0262209E374416
:108A100084FB076780FB01610898219E0D9C00EB99
:108A20006606520060005B000C9C03EB4B0302EBFC
:108A30004A0AC0EB4C0C06EB48024900A6EB48067C
:108A4000C1EB470103EB0C00A9EB040702EB0308A1
:108A500033441F97A3EB0A0706EB0C0309EB640BE7
:108A60000B44A1EB0A09361A9444101AD044ACEB1B
:108A700001011D93A6EB090648440BEB4E03ABEB3B
:108A80004E02CDF86C80239721911E9620901C9366
:108A90002292002D40F0DE82DDF800A00949DFF8C7
:108AA0002C80059E084B099C0DF1680C2846AE46AB
:108AB000D14613E0A1EBD96E8BBE0D627E1A3A1639
:108AC000322E0E7EA4FD08005CEB270BDCE40800D0
:108AD000DCF8207058F8043D5CF8044D83FB072750
:108AE00007EBA403326846F8043BA7EBA407544203
:108AF00051F8083CE41B84FB03B307EB830351F8F4
:108B0000047C84FB07B7C2EB87024AF82030744626
:108B1000C9F8802883EAE374A4EBE374734682EA1D
:108B2000E273A3EBE2731C43029BA9F180094B455E
:108B300045EA040501F1080100F12000C8D1039ABB
:108B4000039C019E009F0B9B059924320392029A7D
:108B5000043202923846324601360196FFF774FC21
:108B6000049B284303430493079B543318463B4616
:108B7000043300930F9B0793409B1B68B3423FF75E
:108B800039AE409B019A5B689A4280F2E98104F118
:108B900024030393109B03EB820303F5C073061DAC
:108BA000029324AB0593B046409B0199D3E903237C
:108BB0008B42C8BF00220092409B029A9B69A2F59B
:108BC000C07B039A062BA2F1240107EE901A07EE50
:108BD00010BAA8F1040000F39082C3F107040694D0
:108BE000002250F82230234140F8223058F8223039
:108BF000234148F8223051F8043B02322341122A23
:108C000041F8043CEDD1D8F83820D8F82C00D8F839
:108C10002030D8F81440D8F80850B94E871AD91B1C
:108C2000641A2B1B58F8045C891AE81A5B1A401066
:108C30005B1086FB045400EB6706B14DC01B06EBCE
:108C40004407A6EB440685FB014103EB620404EBF9
:108C500041054FEA410EAB4981FB05C5AA499A1A65
:108C6000AD0081FB0232A949A4EB0E04920081FB06
:108C70000434D8F83030D8F83C10A3EB010CD8F805
:108C80002430D8F81810A3EB0C03A1EB0309D8F893
:108C90003C10A3EB010ED8F80C30D8F8001007EB0D
:108CA000050A7D1BA3EB090317958518821AC91ABB
:108CB0001692A3EB0E0306EB8402A6EB8404491084
:108CC0005B10CDF848A01395CDE914248C4880FBA7
:108CD000092901EB6C02A1EB0C0102EB490607919B
:108CE000A2EB490980FB0E2ED8F83C50854C03EBD3
:108CF000650505EB4E074FEA4E0E84FB0727D8F8B3
:108D00003C20814C9B1ABF0084FB03237F4AA5EBC8
:108D10000E05980082FB0535D8F840E0D8F83430CD
:108D2000D8F82820D8F81C40A3EB0E03D21AF1196A
:108D3000A41AA2EB0E0AD8F81020089118910799EE
:108D4000121BF61BA446D8F804401D960E18A41A50
:108D5000091AA2EB0A020796199609EB8506A9EBF8
:108D60008505641052101C910996CDE91A65644876
:108D700080FB0C1C04EB630101EB4C05E41AA1EB36
:108D80004C0680FB0A3A02EB6E0101EB4A005D4F94
:108D90004FEA4A0A87FB00305B4FA2EB0E028000CD
:108DA00087FB02324FEA820EA1EB0A0A574A82FB86
:108DB0000A3A04EB0E01A4EB0E041F91229406EB79
:108DC0008A03059C009AA6EB8A01CDE92031291877
:108DD0002B1A0A9117EE900A2146239301F00CF802
:108DE00000234B490093224614A812ACCDF82C80E6
:108DF00052F8043B4FF000089B0083EAE378A8EBAD
:108E0000E378CBF80030936800279B0083EAE37790
:108E1000A7EBE377CBF88031E3681D4651F8043BBC
:108E200083FB0565536905EB8303002583EAE3753E
:108E3000A5EBE375CBF80033C3689E468B6883FBD4
:108E40000E9E136A0EEB830E00238EEAEE73A3EBE5
:108E5000EE730668CBF880E40438B6464E6986FBAC
:108E60000E9E666AB14651F8046C86FB09A9D66A63
:108E7000CE440EEB86064FF0000E86EAE67EAEEBA1
:108E8000E67ECBF8006626680434B4460E6A86FB9C
:108E90000C9C866AB1468E6886FB09A9966BCC4409
:108EA0000CEB86064FF0000C86EAE67CACEBE67C29
:108EB00048EA07073D432B4343EA0E0E009BCBF8DD
:108EC00080674EEA0C0C43EA0C030093029B0BF103
:108ED000800B5B458CD1089B0398DDF82C800A9AA7
:108EE0009B1040F8243C079B9B1040F8203C099BBA
:108EF0009B1040F81C3C0446A0F118031EA90BE08F
:108F0000A1EBD96E1D75A37B9A79825A83FB202130
:108F1000A0E4090051F8042F921043F8042B834277
:108F2000F8D1039A019D069B24320392029A0432DF
:108F3000029217EE901A2A4617EE100AFFF784FAEB
:108F4000009B03431846049B03430493409B2A461B
:108F50005B680132934208F1480801923FF724AE62
:108F6000409B019E9B68B34240F3E98024AB009490
:108F7000DDF80081049C059336AF0025D8E9032372
:108F8000DDF800B00599B342C8BF0022584600F092
:108F900033FF109B059946F3000A06F0010903EB25
:108FA0008600ABF1040E4FF0000C0A6892000260DC
:108FB000AB4682EAE27BABEBE27B4B688AEA830357
:108FC0004B441A434CEA020CC0F880302A4683EA2C
:108FD000E372A2EBE372083142EA0B028F424EF8D1
:108FE000045F44EA020400F58070DED1019AD8F8EB
:108FF0000830BCF1000F18BF32460192009A0136CA
:109000002432B3420092B9DC04941F2E0FDC109B73
:10901000002103EB8602002342F823102033B3F52E
:10902000107FF9D10136202E02F10402F3D1049B06
:10903000002B00F08280C0F2888004990023490050
:109040001A4603F10103FAD5409B0198DA6137B063
:10905000BDE8F08FDDF814900A9ADFF8FCB00DF14E
:1090600090084146484600F0C7FE069B00983849E4
:10907000099C03EBC30C374B002503EB0C1C1AAE09
:1090800044222B46AE4604E0376A5BF8041D56F8CE
:10909000044D81FB07A707EBA40149F8041BC7EBAC
:1090A000A4075CF8234087FB041458F823100C44F1
:1090B000A4005CF8021087FB01A158F802704FEA87
:1090C000C31A3944009F890047F80A407746C0F820
:1090D000801884EAE477A7EBE477744681EAE174C8
:1090E000A4EBE174043A2743202A45EA070503F17B
:1090F0000103A0F18000C7D121E50023069382E59A
:10910000079E3346483300200F9319461BAC024696
:109110008B689A1A4B680839101A8E42A3EB020228
:10912000206244F8042DF3D100230B93FFF7A0BB7A
:109130000023069D0A93FFF778BB1F2284E7019E58
:1091400063E70023049301931BE54FF0FF327BE7B5
:109150005CEB270B80E30900DCE408002DE9F04F0D
:10916000D1F80031A3F11002102A85B00C468046D8
:1091700000F236810123934003F0013323F0807322
:10918000002B14BF0B46002307EE903A17EE902AEF
:1091900094F80401DFF850B24146FEF771FF94F8ED
:1091A0000431013BDBB2019308F10403039308F19E
:1091B00010030093C2469AF801009AF80D109AF82D
:1091C00009509AF805309AF802208AF805009AF8B2
:1091D00007009AF80A609AF806408AF80D508AF853
:1091E00009309AF80E509AF803308AF801108AF87C
:1091F0000A209AF80B109AF80F208AF803000398B7
:109200008AF80B208AF802608AF806508AF80E4025
:109210008AF807108AF80F3057465246002312F892
:1092200023101BF8011002F823100133042BF6D190
:1092300001329042F2D1019C17EE902A514620460D
:10924000FEF71EFF002C00F0C880CDF808A03A7889
:1092500097F80290797897F803E0D3094FEAD91686
:1092600003EB43034FEAD11C03EBC30306EB4606B3
:1092700083EA42034FEADE100CEB4C0C06EBC60609
:109280005FFA83FA86EA4906C3F3C0130CEBCC0CF1
:1092900000EB400082EA01088CEA410CC6F3C014DE
:1092A00082EA090203EB430300EBC00080EA4E00B0
:1092B000CCF3C01581EA09015FFA8CFC8EEA020248
:1092C00003EBC30304EB4404F6B283EA4A038EEAD9
:1092D00001018CEA020288EA0E0E04EBC40488EA5B
:1092E0000908C0F3C01984EA460486EA0E0E7240EB
:1092F00005EB4505C3F3C01609EB4909C0B205EB00
:10930000C5058AEA01018AEA080809EBC90906EBE2
:10931000460685EA4C0589EA400980EA0E0E8CEA89
:10932000010180EA080806EBC606D8B286EA4006C4
:10933000414080EA0E00C5F3C01E0EEB4E0EF3B2A4
:10934000EDB20EEBCE0EC4F3C0166A4085EA0808F3
:1093500006EB46068EEA45055FFA89FEC9F3C01999
:10936000E4B28EEA020206EBC60609EB4909EDB249
:10937000614060408EEA08085A4086EA440409EBDE
:10938000C909E4B283EA010C83EA080883EA000110
:1093900089EA4E0E85EA020385EA0C0C5FFA8EF22A
:1093A0006940634085EA0805534084EA0C0C61403B
:1093B0006C407B7082EA0C0C5140009B87F800C027
:1093C0006240B970FA700437BB427FF440AFDDE908
:1093D000013A581EC3B20193EDE605B0BDE8F08F27
:1093E000002307EE903AD1E6F469090010B4D0F8F2
:1093F000C437D0F8C847D0F8BC2704FB03F302FBFE
:1094000003F3002B11DD00220239944621F802CF2C
:10941000D0F8C847D0F8C43704FB03F3D0F8BC47F2
:10942000013204FB03F39A42F0DB5DF8044B704712
:10943000012913DD821E02EB010C431EC0F1010164
:1094400001E063450AD0C81813F8012FFF2AF8D1AC
:109450005A7802F0E002E02AF3D170474FF0FF3073
:10946000704700BF10B54FF0804386B0D3F8044377
:10947000620703D5D3F80821002A62D1A30605D5D7
:109480004FF08043D3F81421002A4FD1600605D550
:109490004FF08043D3F81821002A3BD1210604D590
:1094A0004FF08043D3F81C214ABBE20504D54FF0AE
:1094B0008043D3F82021B2B9A30512D54FF08043E1
:1094C000D3F824216AB10022C3F82421D3F824213F
:1094D000214B0092009A1B68022006B0BDE81040A4
:1094E000184706B010BD0022C3F820211A4AD3F84D
:1094F0002031019301201368019A9847DCE700208E
:10950000C3F81C01144AD3F81C3102931368029A61
:109510009847CAE70022C3F81821104AD3F8183137
:10952000039301201368039A9847B7E70020C3F814
:1095300014010A4AD3F8143104931368049A984723
:10954000A4E70022C3F80821054AD3F8083105939F
:109550001368059A984791E7206201201C62012058
:109560001862012002480322002128F0C5BA00BF7A
:1095700000B0004002480422012128F0BDBA00BF1B
:109580000010014002480422022128F0B5BA00BFB1
:10959000004002409648974A904208B507D2013AE7
:1095A000121A22F00302944904322BF071FB934803
:1095B000934A904207D2013A121A22F0030204326F
:1095C00000212BF015FC4FF08053D3F83021082AEE
:1095D00020D08C4AD2F8883043F47003C2F8883027
:1095E000BFF34F8FBFF36F8F4FF01023D3F80C22D0
:1095F000D20700F1DF80D3F80022002AC0F2B48045
:10960000D3F80432002BC0F2AF807F4B7F4A1A6040
:109610004EF0ECFF4FF080410020C1F80C017C4A75
:10962000C1F81001C1F83805D3F80414C2F82015A8
:10963000D3F80814C2F82415D3F80C14C2F828156E
:10964000D3F81014C2F82C15D3F81414C2F830153E
:10965000D3F81814C2F83415D3F81C14C2F8401506
:10966000D3F82014C2F84415D3F82414C2F84815CE
:10967000D3F82814C2F84C15D3F82C14C2F850159E
:10968000D3F83014C2F85415D3F83414C2F8601566
:10969000D3F83814C2F86415D3F83C14C2F868152E
:1096A000D3F84014C2F86C15D3F83411D3F844340D
:1096B000C2F87035032916D8564B5B5C1BB1564B6C
:1096C000564AC3F88C26564B5B5C63B14FF080530F
:1096D0005449D3F83021FB20C1F81805082AD3F8E3
:1096E000343104D075E74FF08053D3F83431032B75
:1096F00020D94FF08053D3F83431032B0ED84A4A87
:10970000D35C5BB14FF08053484AD3F830314FF40B
:109710000071082BC2F840167FF45BAF4FF0804316
:10972000D3F80024D1077FF554AF6FF00102C3F8DE
:1097300000244EE73E4AD35C002BDAD04FF0805233
:109740004FF08040D2F85832D0F8E41ED2F83041C1
:1097500003F00F0321F00F010B43C0F8E43E082C87
:10976000D2F83431C9D034E7324B0122C3F8042592
:10977000D3F80024002AFBD04FF0102312222D49E9
:10978000C3F80022D1F80034002BFBD04FF0102298
:109790001221284BC2F80412D3F80024002AFBD06F
:1097A00000222449C3F80425D1F80034002BFBD053
:1097B00001F012F81F4B0122C3F80425D3F800244E
:1097C000002AFBD04FF010211A4AD1F80C3223F0B6
:1097D0000103C1F80C32D2F80034002BFBD0002377
:1097E0001449C2F80435D1F80034002BFBD0DFE770
:1097F00000000120980501206CEE09009805012069
:10980000B46B012000ED00E0000001200090D003C7
:1098100000C0004040AD08000050004048810300F7
:1098200040AD080000F0004040AD0800009002404C
:1098300040AD080000E001400149024854F07ABD03
:10984000DC6001200030004002494FF0402054F01D
:1098500071BD00BF10610120084BD3F8182102B977
:109860007047002282B0C3F81821D3F81831019351
:10987000019B034802B024F005BD00BF0030024048
:109880007C600120084BD3F8182102B970470022F0
:1098900082B0C3F81821D3F818310193019B034813
:1098A00002B024F0EFBC00BF00F00240A060012035
:1098B000F0B52A4C83B00226002501A84CF0B8FA76
:1098C00005280BD0019B032B3DD02CD8022BF4D1C3
:1098D00001A825704CF0ACFA0528F3D1204D214F9A
:1098E0004FF40C760DF102012846ADF802604CF001
:1098F0003FFAA0B9D7F8DC40002CF3D02346246807
:10990000D3E9011228469047002CF7D10DF102014E
:109910002846ADF802604CF02BFA0028EAD00C285B
:1099200017D003B0F0BDA3F10902022AC5D80A2B53
:109930000BD0092B0BD00B2B0CBF01204FF0FF30AD
:1099400054F07AFBB9E72670B7E70020F8E7022069
:10995000F6E7054848F0C2F903B0F0BDA96B012055
:109960004C5E012024620120406D0800014902483C
:1099700028F09AB8C46001200090004001490248D4
:1099800028F092B8D060012000A0004001490248B0
:1099900055F0FEB844610120002000400149024812
:1099A00055F0F6B868610120008002402DE9F04FC3
:1099B000BA4A0023D2F8000387B002F580721D4630
:1099C00001261F4620FA03F1CC0709D5116806FAD3
:1099D00003F429B125431760BFF36F8FBFF34F8F97
:1099E0000133192B02F10402ECD1E80700F17C816C
:1099F000AB4E290508D5A94BD3F8A83601229BB256
:109A000086F8D720A6F8D230AA0213D5A34CD4F8F2
:109A10001435DB0500F1AF81D4F81035DF0540F1D6
:109A2000B28196F8D730002B40F0B6810121032097
:109A30001CF0BCF868021FD5984BD3F8004404F41E
:109A4000E062E105C3F8002400F18B81620510D5C6
:109A5000924B0122C3F808259A65D3F8002312F42B
:109A6000001208BFC3F854218C4B4FF40012C3F806
:109A70000423A30500F170812F0237D5874BD3F85B
:109A800080E4D3F88424D3F88814D3F88C74D3F802
:109A900090445FFA81FCD3F89414D3F89804D3F877
:109AA0009C341EF07F0F5FFA8EF8D2B2FFB2E4B2A0
:109AB0005FFA81F9C0B2DBB201D1052A16D08DF868
:109AC00016008DF8173001214FF4C06303A88DF8FC
:109AD00010808DF811208DF812C08DF813708DF85C
:109AE00014408DF8159003931CF070F86D4B2B40CB
:109AF000002B40F0F180DFF8A8B14FF001085E467E
:109B0000D946002412E0BEF80620A9F80420BEF8C9
:109B1000062092B21CF090F9B8F1090F41D008F17B
:109B2000010801345FFA88F809F118095B4B04EB6E
:109B3000840203EB820204F10C0325FA03F304EB25
:109B4000440706EBC7075FFA84FC13F0010FBE461B
:109B50004FF0010361464FF00000DDD0D2F8082736
:109B60005FFA82FAD9F800205244C9F80020FA8836
:109B70001AFA82F292B2082CFA801FFA8AFAC2D03C
:109B8000B9F808205245BED1FA88B9F8047092B2EB
:109B90009742B8D9BCF1000FBED1434821F00EF96D
:109BA000BDE7424B2B40002B62D03C4BD3F86C946A
:109BB000C3F86C94BFF36F8FBFF34F8F15F48065BC
:109BC00060D10195364FDFF8D4A0002406E0002CC8
:109BD00078D0B8F1070F29D00134183704EB84038B
:109BE0000AEB830129FA04F304EB4402D80706EBDD
:109BF000C2025FFA84F8EAD5D1F80816F868C9B24B
:109C00000844F860538A11FA83F39BB25382538A53
:109C1000398A9BB2994240464FF0010348F08001D7
:109C20004AD959F06FFBB8F1070FD5D1019F002435
:109C3000012507E0002C4CD0B8F1070F18D00134F3
:109C40000BF1180B04EB440306EBC30204F1100301
:109C500029FA03F3DB075FFA84F8EBD5D388BBF866
:109C600004109BB2994230D8B8F1070F9572E6D133
:109C70000F48104A0023C0E9002307B0BDE8F04FA9
:109C80000AF090BCD3F88054D3F8803483F080037A
:109C9000C3F3C013C5F3C015019393E700700240EE
:109CA000A81E0120FCFB1F004C70024000040001B4
:109CB0001867012071FE0700528A002092B21CF042
:109CC000BBF886E7002D87D096E7404659F040FB69
:109CD000B2E7002FB3D0C1E796F8D830002B66D09A
:109CE000002386F8D83006E7354B01210022C3F85F
:109CF00014151446C3F81015930003F1804303F5BF
:109D00001C330132082A5C609C62F5D12C4B2D4E2D
:109D10005C629C64C3F85841D3F80024D3F8001463
:109D20000A43C3F80024D3F80023C3F80823264AC3
:109D3000C3F804230021DC2230462BF059F84023DD
:109D40000121B382338103A80394CDE904448DF843
:109D50000D101BF03BFF4CE6012105201BF026FFF8
:109D60008AE60121C3F82C1504201BF01FFF6205B1
:109D70007FF57FAE6CE659F01DFBD4F81035DC059D
:109D80003FF54FAE52E64FF40013C4F808330121FB
:109D900003201BF00BFF4DE6B6F8D2200020012374
:109DA00092B286F8D70088211CF046F83EE64FF0C4
:109DB000E023D3F8F03DDC077FF59DAE00BE9AE6C8
:109DC00000700240A81E01200514C00110B5084C07
:109DD000D4F8003182B04BB1064B5B689847002342
:109DE000C4F80031D4F800310193019B02B010BDDA
:109DF00000000140FC610120022A2DE9F0411FD042
:109E00003C4B02EBC20C03EB0C1C0CF1480601F1BD
:109E1000440E0CF18C0C00F1240750F8043B5CF864
:109E2000044956F8045B1A4685FB028241F8042B6C
:109E300084FB032387424EF80439EED1BDE8F0815C
:109E400082682D4B83FB02422C4E846986FB0454AE
:109E500022440A602A4C426884FB0252294FC56999
:109E600087FB05C52A444A60026883FB0252056AE3
:109E700086FB05752A448A60234D026885FB0262D1
:109E8000224E076A86FB07C73A44CA6042684FF011
:109E9000604C8CFB0272C7698CFB07E73A440A618D
:109EA000826886FB0272876985FB07E73A444A614C
:109EB000426983FB02728A61026984FB0272CA6191
:109EC000C26883FB02420A62C36885FB03234B62BC
:109ED00003698CFB03238B62426986FB02320023F9
:109EE000C1E91033C1E90E33C1E90C33CA62BDE8E0
:109EF000F08100BF80E30900D8E3CEB8281C310709
:109F000033C3BEB2CD3C410D9A615FC9669EA0F6D7
:109F10002DE9F04F90F8604095B0012C069100F0CB
:109F2000D680022C45698346914600F0268190F840
:109F30006820436A002A40F01381C26CBBF85E00BF
:109F40009BF86510C41DE410C0EBC40006294FEA5D
:109F5000C404C6B200F0E381C1F10501C9B24FF4F7
:109F6000006088400C90402088400D90012000FA4D
:109F700001F10E91184600212AF03AFF00EB86030A
:109F800002939BF86230002B00F0D480A200129262
:109F900009F1FF3292B2511C12B205F11808890082
:109FA0000B929BF8667005910022CE460892C2463D
:109FB000D946002F00F0B580002299F8653009924B
:109FC000F046D646CA46002B00F09F809DF824201C
:109FD000079208FB02F25200DDE90D1411920022F3
:109FE0000F921092DDF830909DF820200A92019196
:109FF00042469AF9675085EAE571A1EBE5710139AE
:10A0000049B2481C6AD002980A9E85EAE573A3EB20
:10A01000E573DBB206FB031302FB03F3069E07FBAB
:10A0200003F306EB8303CEB2C907049602D5002DD5
:10A03000C0F28780119903EB010C07FB02F30CEBD4
:10A0400043034FF001080021002A38D0059D0393F7
:10A0500046191FFA88F837463CF811B0039B019D5A
:10A0600033F811601BEA090318BF5EF8183C1BEABD
:10A07000050F1CBF5EF8145C2B431BEA040F1CBFCA
:10A080005EF8105C2B4316EA090F1CBF5EF80C5CEF
:10A090002B43019D2E421CBF5EF8085C2B432642D9
:10A0A0001CBF5EF8046C334350F8046B41443343E7
:10A0B000B84209B240F8043CCED19AF86670049BCD
:10A0C000591E49B24B1C07D09AF967509CE715B04E
:10A0D000BDE8F04F00F084B99AF865300199490065
:10A0E0000191109949BB052B27D901244FF4006930
:10A0F0000F990298129D01310F91C9B228449942DB
:10A1000002901091FFF475AF9046099A01320992BE
:10A11000D2B2BA42FFF457AFD146F24699F8623054
:10A12000C646089A01320892D2B293420AF1180A3E
:10A130003FF63FAF15B0BDE8F08F4FEA4909640024
:10A14000D6E7079D791E491B02FB01F103EB410392
:10A1500007FB02FC0B9903EB4C0C4FF0FF3873E745
:10A1600090F86A10DBF84C20C1F10100B2FBF4F169
:10A1700000FB01F103EB8103E0E690F86820436AFD
:10A18000002A40F02181C26CBBF85E009BF865108C
:10A19000C41DE410C0EBC40006294FEAC404C6B2D3
:10A1A00000F00A81C1F10501C9B24FF40060884096
:10A1B0000890402088400990012000FA01F10A919E
:10A1C000184600212AF014FE9BF8623000EB460C82
:10A1D000002BAFD06200109209F1FF3292B21392BD
:10A1E0000132520005F10C0A4FF0000812924A4663
:10A1F0009BF86670C146D046DA46E3469446002F87
:10A2000000F0BA80002307939AF86520BDF94C301E
:10A2100005935D46CDF80490002A00F0A1809DF8DA
:10A220001C300493DDE909190CFB03F35B000F9369
:10A23000DDF820E0029100230B930E93AB469AF9D0
:10A24000670080EAE073A3EBE073013B5BB25C1C48
:10A250006FD09DF8042003925C4680EAE072039977
:10A26000A2EBE072D2B201FB02320CFB02F20699C1
:10A2700007FB02F201EB8202D9B21191D90702D594
:10A280000028C0F285800F9BD11807FB0CF201EB70
:10A29000420201230020BCF1000F38D09BB20D9385
:10A2A000129BE3180C9331F81050029F32F81060A3
:10A2B00015EA0E0318BF38F80C3C3D421CBF38F8B5
:10A2C0000A7C3B4315EA090F1CBF38F8085C2B4396
:10A2D00016EA0E0F1CBF38F8065C2B43029D2E4277
:10A2E0001CBF38F8045C2B4316EA090F1CBF38F872
:10A2F000025C2B430D9D284434F8025B2B4324F869
:10A30000023C0C9B9C4200B2CDD19AF86670119B26
:10A31000013B5BB25A1C0AD09AF967009DE72021E5
:10A320001027CDE90D174FF400410C9122E69AF861
:10A330006520029B5B0002930E9B002B37D1052A00
:10A3400035D94FF001094FF4006E0B9B1099013382
:10A350000B93DBB293428B440E93FFF470AF5D46D8
:10A36000079B01330793DBB2BB42FFF455AFDDF827
:10A3700004909AF86230AB4609F101095FFA89F25C
:10A38000934208F10C083FF63AAF15B0BDE8F08FE4
:10A39000049905987B1E5B1A0CFB03F302EB430246
:10A3A00007FB0CF102EB41014FF0FF3373E74FEA7B
:10A3B0004E0E4FEA4909C8E720211027CDE90917B9
:10A3C0004FF400410891FBE6C26C90F86A10C1F1AD
:10A3D0000100510800FB01F103EB4103D4E600BF8B
:10A3E0002DE9F04F034691B0D0F8149001921A462F
:10A3F00093F8683003900491406A33B192F86A3060
:10A40000D26CC3F1010302FB0300039BB3F85E208F
:10A4100093F86510D31DDB10C2EBC30250FA82F231
:10A42000DB00062906920B9300F0C280C1F1050300
:10A43000DBB24FF400629A400D9240229A400E9295
:10A44000012202FA03F30F93039B93F86630002B6B
:10A4500000F09880019A013A12B20A9200220C92FE
:10A46000002900F088809DF8302001980992DDE9EC
:10A470000E6800FB02F2520005920D9D0022079229
:10A480000892B646039A92F96720002AB8BF524252
:10A49000013A52B2541C59D0069C0199049801FB10
:10A4A00002F603FB06F600EB8606D0B20290D00758
:10A4B00004D5039A92F96720002A66DB059A1644B0
:10A4C000019A03FB02F706EB47074FF0010C00224D
:10A4D000019999B31FFA8CFC04EB010A36F81210AB
:10A4E00037F8120011EA050318BF99F8003011EA95
:10A4F0000E0F1CBF99F801B043EA0B0311EA080FD5
:10A500001CBF99F802100B4328421CBF99F8031096
:10A510000B4310EA0E0F1CBF99F804100B4310EA0E
:10A52000080F1CBF99F805100B4304F8013B624467
:10A53000544512B2D2D1039B93F86630029A013A85
:10A5400052B2511CA9D1039A92F86510089A4FEAA9
:10A550004E0E4ABB052927D94FF001084FF400657C
:10A56000079A06980B9C01320792D2B220448A4285
:10A570000690089286D30C9A01320C92D2B29A427B
:10A58000FFF46EAF11B0BDE8F08F099A5F1EBF1ADD
:10A5900001FB07F706EB470703FB01F60A9A07EBF7
:10A5A00046064FF0FF3C93E76D004FEA4808D7E7B7
:10A5B00020231025CDE90E354FF400430D9343E7DA
:10A5C00090F8661090F865304A1E013BDBB2D2B2BB
:10A5D00080F86B30012980F86C2088BF90F86C30CF
:10A5E00090F8631088BF03F1FF334FF000028CBF77
:10A5F000DBB2012380F86D3070B580F86E20826583
:10A6000000293FD0944601223B4D634640F203347B
:10A61000964614E01F2B86BF03F01F0329464FF018
:10A62000A0410EFA03F3C1F8083590F863100CF15D
:10A63000010C5FFA8CF352009942D2B222D9816C9C
:10A640001E0101EB03131B7B1F2B86BF03F01F03AF
:10A6500029464FF0A04103F5E07341F8234090F8FC
:10A660006D301342836C33441B7BD3D11F2B86BFC9
:10A6700003F01F0329464FF0A0410EFA03F3C1F87F
:10A680000C35D2E703681D4A934208BF08241AD04C
:10A690001B4A934216D002F58052934227D002F50E
:10A6A0008032934225D002F58052934208BF1B248A
:10A6B00009D001224FF47A715A60DA60C3F840156C
:10A6C0001A6070BD092401210022596001FA04F4C6
:10A6D000C3F80425D9604FF48031C3F80825C3F8C6
:10A6E0001025C3F80413074B1C600368E1E70A2434
:10A6F000E9E71A24E7E700BF0003005000800040AC
:10A700000090004000E100E030B490F86E20002A94
:10A71000FBD102F0FF030268012454601464816BD2
:10A72000D2F84025026C0A6090F86220B2B1234D45
:10A730000269D25C1F2A29468CBF02F01F024FF02B
:10A74000A04104FA02F2C1F80C2590F8622001330E
:10A75000DBB202EB4202B3EB420FE9DBB0F85E3052
:10A7600023B3164C00224FF0010C90F861301F2BE0
:10A7700021468CBF03F01F034FF0A0410CFA03F3F6
:10A78000C1F8083500BF00BF90F861301F2B21468B
:10A790008CBF03F01F034FF0A0410CFA03F3C1F884
:10A7A0000C35B0F85E3001329A42DED3826A036B18
:10A7B0001360C26A136030BC704700BF00030050D2
:10A7C00090F8683033B1012380F86E3090F86E3025
:10A7D000002BFBD1704700BFBFF34F8F0549064BDD
:10A7E000CA6802F4E0621343CB60BFF34F8F00BF2F
:10A7F000FDE700BF00ED00E00400FA0570B510EEC3
:10A80000106A26F000450123B5F1FF4FB0EE402A53
:10A81000036020DAB5B1B5F1E45F04460DDA002E2D
:10A82000BEBF4FF0FF330360B1EE400A29F038FDA0
:10A83000B1EE402AB0EE420A70BD002E10DAB5F13A
:10A84000964F65DBDFEDD17AB7EE007A87EE272AE7
:10A85000B0EE420A70BD20EE002AB0EE420A70BD92
:10A86000B5F17E5F51D0B5F1804F4ED0DFEDC71A04
:10A87000730073D4C64B9D4240F32482C54B9D4266
:10A8800040F3CE81B0EE007A37EE427A9FEDBF0AF8
:10A89000DFEDC16A9FEDC16A9FEDC15ADFEDC15A7C
:10A8A0009FEDC12A67EE077AA7EEA66AE7EE855A02
:10A8B000DFEDBE6A9FEDBE5AE6EE276AA5EEA75A07
:10A8C0009FEDBC6ADFEDBC5AA6EEA76AE5EE275AFB
:10A8D000DFEDBA6AE6EE276A9FEDB96AA5EEA76AD0
:10A8E000A6EEA72ADFEDB76AE6EE276A22EE072A70
:10A8F000F6EE005AA6EEA72AA7EE652A32EE002A47
:10A90000002E97DA31EEC22A94E79FEDA02A91E754
:10A91000B5F17A5FC0F2E481B1EE407AB0EE470A59
:10A9200023F0AAFEB4EE407AF1EE10FA40F0E8808F
:10A93000DFEDA57A77EEC27A17EE903A03F00103C5
:10A9400007EE903AF8EEE77A9B00062B00F227829A
:10A95000DFE803F0588B8B54549A9A00B5F1824F7C
:10A9600080F2E180BDEEC27ADFED986A9FED986AD1
:10A970009FED985ADFED985AF8EEC77A17EE103A25
:10A9800072EE677A033BA7EEA66AE7EE855ADFED23
:10A99000936A9FED935AE6EE276AA5EEA75A9FEDBC
:10A9A000916ADFED915AA6EEA76AE5EE275ADFED30
:10A9B0008F6A9FED8F5AE6EE276AA5EEA75A9FEDA4
:10A9C0008D6ADFED8D5AA6EEA76AE5EE275ADFED18
:10A9D0008B6AE6EE276AB7EE006AA5EEA76A66EE16
:10A9E000A76AB6EE005A86EE862AA7EE852A042BC1
:10A9F00086D8DFE803F06B587D6E8000B7EE007AF2
:10AA000077EE677A9FED7E0ADFED600A27EE800A17
:10AA1000002000F021FEF1EE401AF5EE401AF1EEB2
:10AA200010FA3FF40FAF62EE217A9FED750AF0EE57
:10AA3000E77A80EE270A29F033FCF5EEC01AF1EE32
:10AA400010FA4CBF4FF0FF330123B5F17E5F236056
:10AA5000F0EE401A00F05981B5F1804FB1EE422A74
:10AA60007FF406AF9FED492A4CE7B6EE007A77EE09
:10AA7000677A9FED630ADFED450A27EE800A00F052
:10AA800009FBF1EE401AC8E7B7EE087A77EEC77A0D
:10AA90009FED5B0ADFED3D0A27EE800A00F0FAFA2F
:10AAA000F0EE401AB9E7B7EE007AB0EE080A37EEDA
:10AAB000800A20EE070AB0EE007A77EE877A27EE5A
:10AAC000800A29F0EDFB32EE002A19E7B7EE000A02
:10AAD000F1E7B7EE000AB1EE047A37EE877A27EE97
:10AAE000000AB1EE007A37EE877A27EE007ADCE7CB
:10AAF000B7EE000AF5E7B1EE080A37EE800AEAE79A
:10AB0000F6EE007A27EE277AB0EE470A23F0B4FD7E
:10AB100037EE400A70EE007AB0EE677ABEEECF7A7A
:10AB200017EE103A11E7B5F1B94FB0EE420A80F2D4
:10AB3000E38029F0B5FBF7EE007A87EE826A30EE0B
:10AB4000670A9FED303ADFED303A9FED304ADFED96
:10AB5000304A9FED305ADFED305A9FED307A66EE85
:10AB6000067AF6EE006AE7EE833A72EE666AA3EEC4
:10AB7000A74AE4EE274AA4EEA75AE5EE275AA5EE27
:10AB8000867AB0EE472AA6EE802AB9E600000000D9
:10AB90006666663F17A6DD3FA283D337679767399E
:10ABA000752C3C384584E2383F239E3DA1549C3AA5
:10ABB00034B6053A7E02F23BC66E3D3B01F0893D5C
:10ABC0001599A83C661AA53E0000004B67FF0538A2
:10ABD000B435F13ABDD7F536D6EE4B3AE440DA3C1F
:10ABE00054BF983CE6DC153E6E0F303E7ACCA63E54
:10ABF000C5D0383F5A245C3E3B2DB23F3F239EBD1B
:10AC0000DB0F4940E8C4D5BAD23D5B3A5C061CBABA
:10AC1000FD0C503A610B36BBABAAAA3D1D7FD63E58
:10AC2000614B9D4274DDDFED617A9FED610A32EE8A
:10AC3000672A22EE024ADFED5F5A9FED5F7A9FEDB1
:10AC40005F6ADFED5F6A9FED5F5ADFED5F4A64EE9A
:10AC5000027AA7EEA56AE7EE876ADFED5C5A9FED00
:10AC60005C7AE6EE275AA6EEA77A9FED5A6ADFEDE8
:10AC70005A6AA5EEA76AE7EE276AE7EE854A9FEDD6
:10AC8000577A9FED575ADFED575AA6EE277AE6EE30
:10AC9000A75AA4EEA75A9FED546ADFED546AA5EEB9
:10ACA000827AA5EE276A9FED522ADFED525AE6EE30
:10ACB000276AA7EE672A94EE262A32EE652A32EE3C
:10ACC000002A1DE6B0EE420A29F0EAFA4A4B9D42FC
:10ACD000B1EE400A5BDDB7EE007A37EE427AD7E597
:10ACE0009FED460ADFED320A22EE000A002000F056
:10ACF000B3FCF0EE401A90E629F0D2FAF7EE007AB3
:10AD000030EE670A20EE022AFAE5B0EE402A91E51D
:10AD1000F7EE007A32EE672A9FED250ADFED386AFA
:10AD2000DFED387A9FED387A9FED386AE2EE267AC9
:10AD3000A2EE076ADFED366A9FED367AE7EE826AA9
:10AD4000A6EE027ADFED347A9FED346AE6EE827A7F
:10AD5000A7EE026ADFED326A9FED327AE7EE826A91
:10AD6000A6EE027ADFED307AE6EE827AF7EE006A3E
:10AD7000E7EE026A67EE827ABEEE006A87EEA67A96
:10AD8000F0EE477AE2EE067A37EE802AB8E5274BF6
:10AD90009D42C3DDDFED267A32EE672A49E7B0EE49
:10ADA000007A77EEC77A2DE61FA69D3FC316BB3FFC
:10ADB0000000000027F9A3B9F7E9AF3967F8663A50
:10ADC00085300DBA6B7BA53976F4B7BAFE7771BBC7
:10ADD0009916143B3D37933CFEFC28BC3C2117BE22
:10ADE00007E7C73B155A843D474D06BD5EB9F73EA0
:10ADF000521CE631CDCDF83D1F4A3B3FDB0F4940A9
:10AE00005E3C5B3C78756A3EDBD5523BAF72D53D0C
:10AE1000B24B7A3FDFEF443FE73ABA3F2D39084063
:10AE2000F400223FBE2E1D403F239EBD07336D3EE2
:10AE30000C5BEC3E30B510EE103A894A23F0004C22
:10AE4000944585B0044664DD864A944510EE105A58
:10AE500022DC002BDFED847A844A2CF00F0CB0EE5C
:10AE6000407A40F3E380944570EE677A09BFDFEDE6
:10AE7000806A9FED807A9FED807A77EEE67A0120F6
:10AE800077EEC76A77EEE67AC4ED006A77EEC77AA6
:10AE9000C4ED017A05B030BD784A944540DCDFED61
:10AEA000786ADFED715AF0EEC07AB6EE007AA7EE5E
:10AEB000A67ADFED706ABDEEC77A17EE100AB8EE1B
:10AEC000C76A1F28E6EE657A26EE267AF1EE465A24
:10AED00068DC6C4A411E23F0004352F8212023F025
:10AEE000FF0393425ED077EEC76AC4ED006A77EE47
:10AEF000E67A002D77EEC77AC4ED017ACADAF1EE70
:10AF0000666AF1EE677AC4ED006AC4ED017A4042E8
:10AF1000C0E7002284ED000A4260002005B030BD89
:10AF2000BCF1FF4F73DA4FEAEC52863AACEBC253F6
:10AF300007EE903ABDEEE77ADFED536AB8EEC77AD6
:10AF400077EEC77A8DED017A67EEA67ABDEEE77AE5
:10AF5000B8EEC77A77EEC77A8DED027A67EEA67AF9
:10AF6000F5EE407AF1EE10FACDED037A5CD1B5EE54
:10AF7000407AF1EE10FA14BF02230123214601A802
:10AF800000F00AF9002D85DA94ED007AD4ED017A0B
:10AF9000B1EE477AF1EE677A84ED007AC4ED017A7A
:10AFA000404277E777EEC76A4FEAEC5216EE903AE6
:10AFB000C3F3C753C3EBDC5CBCF1080F95DD9FED19
:10AFC0002C7ADFED2D6AB0EE675AA5EE875A77EE40
:10AFD000C57AE5EE877AD6EE267A75EE676AB0EE28
:10AFE000677A16EE903AC3F3C753D21A192A16DDC0
:10AFF000DFED266ADFED264AF0EE457AE5EEA67A29
:10B0000035EE677AA5EEA67A96EE247A6BE770EEB7
:10B01000407A0020C4ED017AC4ED007A3AE7F0EE00
:10B02000457AC4ED006A62E70323A7E7944570EE12
:10B03000277A09BFDFED0E6A9FED0E7A9FED0E7A3B
:10B0400077EEA67A4FF0FF3077EE876A77EEE67AF2
:10B05000C4ED006A77EE877AC4ED017A1AE700BF83
:10B06000D80F493FE3CB1640800FC93FD00FC93FEF
:10B07000004435374344353708A3852E800F4943B4
:10B0800084F9223F485909000000804300A3852E1F
:10B0900032318D2410EE103A23F00043B3F1485FB3
:10B0A0002CDAFDEEC07A17EE903A002B60D020EE3D
:10B0B000007ADFED317A9FED315ADFED315A9FEDA5
:10B0C000316ADFED316AA7EE275ADFED307AE7EE1D
:10B0D000055AA7EE256AE7EE067AE7EE276A67EEDD
:10B0E000266A60EEC00AF6EE007AE7EE260AB7EEB0
:10B0F000000AD7EE270A30EE600A704720EE007A89
:10B10000DFED1D7A9FED1D5ADFED1D5A9FED1D6A83
:10B11000DFED1D6A1E4AA7EE275A9342DFED1B7A28
:10B12000E5EE075AA5EE876AE6EE077AE7EE876A4C
:10B1300066EE876AD5DD174A934214DC03F17F433C
:10B1400007EE903AB7EE006A36EE676A60EEC00A24
:10B15000F6EE005AD7EE257AE7EE260A77EEE00AF9
:10B1600036EE600A7047B6EE076AF5EE027AEDE752
:10B17000B7EE000A704700BF4ED747ADF6740F31E7
:10B180007CF293B4010DD037ABAA2A3D610BB6BA5D
:10B190009999993E0000483F2DE9F04FD61E48BFCF
:10B1A000161DD5B0F61006F1010B029201914FEA7F
:10B1B000CB0182460391581E02999FEDB47AB44F99
:10B1C000321A03F10905A1EBCB0B541918A9002A77
:10B1D000A4BF12F807C007EE90CA02F10102ACBF8B
:10B1E000F8EE677AF0EE477AA242E1EC017AEED10E
:10B1F00018AA0DF5807C02EB83070AEB8304DFEDD0
:10B20000A37A39465246F2EC016A31ED017A944252
:10B21000E6EE877AF7D101308542ECEC017A07F14E
:10B220000407ECD16FF040473B44DFED9A5A9FEDA5
:10B230009A6A0093B4EE004AF2EE004AF7EE003A42
:10B240004FF0090909EB070854AB03EB89034FEAF8
:10B25000880813ED140A08F1040240AB1A4404A94B
:10B260004D4660EE257AB0EE407AFDEEE77A72ED5B
:10B27000016AF8EEE77A013DA7EEC67A37EEA60A34
:10B28000BDEEC77AA1EC017AEBD158464AF0FEFA3E
:10B29000B0EE407A20EE040A23F0EEF9A0EE647AD4
:10B2A000BBF1000FBDEEC75AF8EEC57A37EE677AEC
:10B2B00069DD09F1FF3C04ABCBF1080153F82C0028
:10B2C00040FA01FE04AA0EFA01F1411A42F82C10CC
:10B2D00015EE102ACBF10703724405EE102A41FA4D
:10B2E00003F2002A59DCB5EE407AF1EE10FA40F094
:10B2F0009080B9F1090F09F1FF3100F0538104ABDF
:10B3000098440DF1300C002358F80409C44543EA71
:10B310000003F9D1002B40F051810C9B002B40F031
:10B3200049810BAA012352F8041901330029FAD0EC
:10B3300009F101009944564B06EB000C9C44009B1C
:10B34000191818AB03EB810140AB03EB800E1CF81E
:10B35000013B9FED4E7A07EE903AF8EE677A0A4687
:10B36000C1ED007A5346043101E072ED017AF3EC4D
:10B37000016AA342A6EEA77AF7D101304845AEECA8
:10B38000017AE4DD5EE740F0FF8009F1FF3304AAB3
:10B3900052F823201212002AA5DD15EE103A0133CF
:10B3A00005EE103A049B002B40F0F78004A801231F
:10B3B00050F8041F002940F0CE8001339945F7D1A1
:10B3C000BBF1000F10DDBBF1010F00F01B81BBF1E1
:10B3D000020F09D109F1FF3004AB04AD53F820305E
:10B3E00003F03F0345F82030022A7FF47CAF33EEB0
:10B3F000C77A00293FF477AFB7EE000A58464AF003
:10B4000045FA37EE407AB5EE407AF1EE10FA3FF4A5
:10B4100070AFDDE90213B0EE470A581A4AF036FA67
:10B420009FED1D7AB4EEC70AF1EE10FAC0F2F78074
:10B43000DFED187A60EE277A04A8FDEEE77A09F1CD
:10B440000101F8EEE77A0BF1080BA7EEC70AFDEE53
:10B45000E77ABDEEC00A17EE904A10EE103A40F8B7
:10B46000293040F821405846B7EE000A4AF00EFA5B
:10B4700040AB4FEA810E03EB8106AEF1040504AB4D
:10B480001D449FED047A301D0B4609E000000000CA
:10B49000648209000000803B0000804355F80449A5
:10B4A00007EE904AF8EEE77A013B67EE807A5C1C83
:10B4B00020EE070A60ED017AF0D10DF1B00C0F46D5
:10B4C0000025634CDFED637A30460023AB4203F185
:10B4D000010307DCF4EC016AB0EC017A0A2BE6EE1A
:10B4E000877AF3D1013F7B1CECEC017A05F1010571
:10B4F000A6F10406E5D12CAB0EF10400DFED557A80
:10B5000018440B4630ED017A013B5C1C77EE877ADC
:10B51000F8D19DED2C7A002A40F08F80019B002904
:10B52000C3ED007A77EE677A0BDD2DA80123B0EC2E
:10B53000017A01338B4277EE877AF8DD0AB1F1EEBA
:10B54000677A019BC3ED017A15EE103A03F007000C
:10B5500055B0BDE8F08F04A8C1F5807140F8231004
:10B56000013399450EDD04A904A851F8231000EB1E
:10B57000830000E001680133C1F1FF01994540F803
:10B58000041BF7DC01211BE7F6EE007AB4EEE77A44
:10B59000F1EE10FA41DA2A46A5E6C3F5807304936A
:10B5A0000123E0E70C9B002B3FF4BBAE4FF00A09F0
:10B5B0004846C0E609F101094846BCE604ABABF1D8
:10B5C000080B53F82140002C7FF44DAF09F1804364
:10B5D000023B04A800EB830353F804490139ABF1A3
:10B5E000080B002CF8D05846B7EE000A4AF04EF986
:10B5F0000029BFF63DAFDFED177A9DED2C7A002ACA
:10B600008CD01AE009F1FF3004AB04AD53F82030C0
:10B6100003F07F0345F82030E6E60222BDE6FDEEAA
:10B62000C07A04AB17EE904A584643F82940B7EE6B
:10B63000000A49464AF02AF91AE7019BF1EE676AC7
:10B64000002977EE677AC3ED006A3FF76EAF76E7C1
:10B6500028AE08000000000010EE103A23F000436E
:10B66000B3F1485F04DAFDEEC07A17EE903A5BB3AF
:10B6700060EE007A9FED157ADFED155A9FED156AA1
:10B68000DFED156AE7EE875A9FED147AA5EEA76AFB
:10B6900020EE275AE6EE276AA6EEA77A30B9DFED4C
:10B6A000106AE7EE876AA6EE850A704727EE457AAC
:10B6B000F6EE006AA0EEA67ADFED0A6AD7EE270A58
:10B6C000E5EE260A30EE600A704700BFD3C92E2F80
:10B6D000342FD7B21BEF3836010D50B98988083C9A
:10B6E000ABAA2ABEABAA2A3E10EE103A23F00042C3
:10B6F000B2F1465F10DAFDEEC07A17EE901A01BB88
:10B70000431C134300F0A280012800F0A880BFEE84
:10B71000007AC7EE007A76E052498A4211DBDFED0B
:10B72000527A9FED527A002BBCBFF1EE600AB1EE67
:10B73000400A37EEC00A77EE607ADFED4D0A37EE49
:10B74000800A20EE007A9FED4B5A9FED4B6ADFEDA9
:10B750004B5ADFED4B6A434967EE077A8A42A7EE00
:10B76000856AE7EEA56A9FED475ADFED475AA6EED8
:10B77000275AE6EEA75A9FED456ADFED456AA5EE2A
:10B78000276AE5EEA76A9FED435ADFED435AA6EE1E
:10B79000275AE6EEA75ADFED416A9FED416AE5EED2
:10B7A000276AA5EEA76AF0EE667AE6EE077A60EE03
:10B7B000075AF0EE606AE7EEA56A9FED3A5AE6EEA8
:10B7C000870AE5EE850A70EE207A1FDA01281AD082
:10B7D000BFEE007AC7EE276A334B17EE902A1A4065
:10B7E00006EE102A16EE902A134007EE903AB7EEB6
:10B7F000007AA6EE277A36EE400A70EEC00AA0EE76
:10B80000A77AE7EE267AB0EE670A704707EE100ACD
:10B81000B8EEC77A67EEA75A77EE877A9B17C5EE20
:10B82000A76A03F00203C3F10103B0EE006A76EEEB
:10B83000E00A07EE903A30EE600AF8EEE77AA0EE02
:10B84000467A67EE877AB0EE670A7047B0EEC00AB4
:10B85000B7EE007AC7EE007AB0EE670A7047F0EEF6
:10B86000407AD0E740A12C3FDA0F493F68212233CC
:10B87000000000005FAE9BB745F4A3388453D9376E
:10B880007AC09538C8261A3AB937813916696B3BA0
:10B8900048DEBE3AA427B33C1F37113C8988083ED6
:10B8A000D10D5D3DABAAAA3E00F0FFFF70B5044686
:10B8B00040F25E400D4633F0EBFF50B1D0E901326B
:10B8C00028469568984704F108012B46BDE870406A
:10B8D000184729462046BDE8704000F001B800BF77
:10B8E00070B50E460546264930462FF02BF908B3B1
:10B8F00090F85030D9063CD443F0100380F8503013
:10B9000005F108011FF02CF995F82A3090F8512024
:10B9100003F00C03002B14BF0123002363F3410247
:10B9200080F8512005D190F8503043F0020380F8A0
:10B93000503070BD134930462FF004F90446D8B199
:10B9400090F82A309A0714D443F0020305F1080155
:10B9500080F82A301EF06AFA95F82A3013F00C0F9E
:10B96000204618BF0121BDE8704008BF00211EF02D
:10B9700003BA054834F0AEF8044834F0ABF800BF21
:10B98000C8F90800A0F50800C0A70900ACA7090085
:10B99000F0B50C4685B0002307466A4601A920464B
:10B9A000019331F0BDF9019B022B52D93A89B2EBD8
:10B9B000430F4FEA430132D33981002423460099D3
:10B9C00051F8236040F24C420221706803FA01F5FD
:10B9D0002AF0E4F8B06803A930F066F800282ED009
:10B9E000F06802A930F060F848B3039A02F500430A
:10B9F000B3F5803F23D2029B03F50043B3F5803FAC
:10BA00001DD27B685A537B68029A1D4401346A80B8
:10BA1000019AA4B294422346D1D305B0F0BD786810
:10BA200010B124F0EBF9019B9800002123F0EAFD0E
:10BA3000019B78605A003A81002BBED1EDE778680F
:10BA400024F0DCF9002304487B6040F24C4134F0E0
:10BA500049F8024834F02AF8E096090088A4090061
:10BA60002DE9F04F2DED028B93468DB0C268BDF8E5
:10BA70006490DDF86880BDF86C701D9E04468A46AF
:10BA80001D46B0EE408A2AB143689A4200F0B68063
:10BA90000FF0F8FEB9F11F0F5BD9BAF1000F00F0FB
:10BAA000838000264FF0060ABBF1000F74D040F2ED
:10BAB00001230DF1180BADF818306B1CADF81A30DE
:10BAC0005846002307934AF079F900283CD19FEDAE
:10BAD0004F0ADFED4F6A189B029328EE000A4D4B88
:10BAE0000690C0EE267A03FB05F54B4BCBF814000D
:10BAF000002FA3FB0535CBE90100CBE9030008BF0C
:10BB00004FF000080796B6EE007A77EE877A6D0B55
:10BB1000FCEEE77A0126ADF80C90ADF81470CDF884
:10BB200010808DF818A0CDED087AADF824508DF86E
:10BB30002D6002F065F938B9384D5A4602A92846F9
:10BB40004AF01CF900283FD00DB0BDEC028BBDE8D7
:10BB5000F08F1F2FA1D8BAF1000F2DD0002E4AD0A0
:10BB6000F0EE0C7AB4EEE78AF1EE10FA3046694650
:10BB70000AD807EE905A9FED2A7AF8EE677AF4EE2B
:10BB8000C77AF1EE10FA3BD900F07AFC6E464FF01E
:10BB9000030ABBF1000F8AD1CDE906BB0DF1180BEA
:10BBA00058464AF00BF990E7002F564614BF4FF065
:10BBB000080A4FF00A0A77E7002F564614BF4FF0E5
:10BBC000040A4FF0050A6FE71649224604F12800DF
:10BBD00009F0CAFE1C9B29785AB230464AF0F8F8A0
:10BBE0000028B1D1287831464AF0CAF80028ABD1F4
:10BBF000189BE360A8E74FF0010A55E71120A3E77F
:10BC000000F03EFC6E464FF0020A4DE700247449F6
:10BC100000401C4440420F005917B7D19505012040
:10BC20006666A63F79E502002DE9F84341600446C7
:10BC300048680A9D807984F82800A5848E7DDDF807
:10BC40002C80994606F0300706F00605002831D111
:10BC50004FF6FF736384E7B1089BA361099B84F8E7
:10BC60002900C4E90229C4E9040084F826002084DC
:10BC7000E361B8F1000F18D030492246404609F080
:10BC800073FE25B173073DD4022384F82730BDE845
:10BC9000F883089BA361099B84F8297084F82670B7
:10BCA0002784E361B8F1000FE6D12448214609F06A
:10BCB0003DFEE6E74B68D8680AF022FD608435BB9C
:10BCC000089BA361099B84F8295084F82650258499
:10BCD000E361B8F1000F2BD019494046224609F024
:10BCE00043FE5DB115F0040118BF012160681ABF61
:10BCF00084F82710002201220FF056FF002FC6D033
:10BD0000B206C1D4012384F82730BDE8F883089B2C
:10BD1000A361099BE3610023C4E90229C4E9043358
:10BD200084F8293084F826302384B8F1000FD3D169
:10BD30000348214609F0FAFDD3E700BF15ED0600E0
:10BD4000A1EC060030B504464FF6FF70A08000203D
:10BD500083B0A160E2712361A071E06082428888B3
:10BD60008B79ADF8040004F1040201A90CBF012095
:10BD700002208DF806304AF043F8054610B12846F7
:10BD800003B030BDA188084600F054FC284603B03B
:10BD900030BD00BF2DE9F04F89B016469DF8482010
:10BDA000002B4AD05FFA81F84168DFF8A8A0002A8A
:10BDB0000A79096881464FF0340000FB02A24FF077
:10BDC0000600C1F800054FF002011D4682F82D1053
:10BDD00014BF002320234FF6FF7B00275D452C4630
:10BDE00028BF5C46CDE90447D9F80420069607979A
:10BDF00010798DF80C708DF80D801168019300EBAF
:10BE0000400200EB82000AEB800003AA52F054FBD0
:10BE10000F4B9842264402D12D1B019BDED1D9F84D
:10BE200004300190197918683FF098FB019A104688
:10BE300009B0BDE8F04F52F05FBAC9B210F0B8FBDC
:10BE4000002814BF0020132009B0BDE8F08F00BF08
:10BE50000000AD0BDC6001202DE9F04F85B00746F6
:10BE60000C460292002A40F0198201F10C053B7841
:10BE7000D4F800A03846002B76D00AF102024FF029
:10BE80000008AA1803925646CDF80480292B5AD0F0
:10BE90005E2B00F2C381232B3FD9243B3A2B3CD8A5
:10BEA000DFE813F0A6013B003B003B005E013B00D6
:10BEB000B00091003B003B0007013B003B003B0012
:10BEC0003B003B003B003B003B003B003B003B009A
:10BED0003B003B003B003B003B00E4003B003B00E1
:10BEE0003B003B003B003B003B003B003B003B007A
:10BEF0003B003B003B003B003B003B003B003B006A
:10BF00003B003B003B003B003B003B003B003B0059
:10BF10003B0010016F003B0065002668002D00F01B
:10BF20005282731C23604FF00103AB5523685A1CE7
:10BF300022603A78EA5439466368013363604B788B
:10BF40004F1C002BA2D10199384649B123685B1AD6
:10BF5000013B5AB29A4218BF48F0010805B16B5430
:10BF6000B8F1000F40F0928105B0BDE8F08F002DD0
:10BF700000F0908123685022591C2160EA54266801
:10BF8000D9E77B78791C002B00F0808143F02002F8
:10BF9000642A266800F0358123F0040343F020036F
:10BFA000732B00F02E81002D00F0B381731C2360F1
:10BFB0004FF00103AB55787827687B1C236052F063
:10BFC000DBFEE855B8E72268B24200F05F817B787B
:10BFD0003F2B00F0F381002D00F00F8239466223E1
:10BFE000AB542368F61A0133023EEE5472B2B242E9
:10BFF00018BF48F0010822686368961C0133266068
:10C0000063609CE72268B24200F04081002D00F09E
:10C010006781B01C921BA919284428F069FE236887
:10C02000023360222360EA542368F21A2B44023A56
:10C030005A702368023323607B7851B2914218BF53
:10C0400048F001083F2B00F0CB8139466123AB5506
:10C050002368721C9E1B023E73B2AE54B34218BFDB
:10C0600048F001085FFA88F826680BE12268B242BE
:10C0700000F00C81002D00F02381B01C921B28449D
:10C08000A91928F035FE2368023323607B783F2B03
:10C0900000F0DD8139466123AB552368721C9E1B7D
:10C0A000023EAE5473B2B34218BF48F0010826688E
:10C0B00042E72668731C2360002D3FF43CAF022347
:10C0C000AB5538E77B7826685E2B07F1010100F05D
:10C0D0005781002D00F08781731C23600323AB552B
:10C0E0002368013323606368013363607B785D2BD1
:10C0F00000F058814FF00009002B00F0C7805C2B46
:10C1000000F00A812368002D00F032815A1C226061
:10C110000A78EA540F467B782D2B00F00F810B78BC
:10C120005C2B00F01481002D00F01D8123685A1C47
:10C1300022600A78EA540F467B785D2B07F10101F3
:10C1400009F10109D8D14FFA89F34B4518BF48F0DE
:10C150000108002D3FF4F3AEAB1983F80190EEE631
:10C160007B7826683F2B00F02081A36803F101094A
:10C17000C4F80890002D00F02981731C23607E23F1
:10C18000AB554FEA4903226859B2994218BF48F0AB
:10C190000108511C2160AB546368013363604FF0A8
:10C1A000010B2146029A781CFFF756FE0146002833
:10C1B0006CD00278292A69D1BBF1000F3FF4BFAEE1
:10C1C000002D00F0478123687E22581C4FEA490960
:10C1D000206009F10109EA544FFA89F34B4518BF71
:10C1E00048F0010823685A1C226005F80390A3E672
:10C1F000002D4FD023685122591C2160EA54266833
:10C2000099E6002D00F08580731C23600523AB5553
:10C2100023685A1C22607A78EA548DE67C2B7FF4DE
:10C220007CAE019800283BD02268131A013B59B21A
:10C23000994218BF48F00108002D34D02B542268D1
:10C24000039805EB0A063146A2EB0A0228F050FDDE
:10C250002368EA18602103332360917023680193F7
:10C260001A4601326123226005F80A302368A3EBE5
:10C270000A03023B73705AB226689A4218BF48F00C
:10C280000108394663680233636058E6002005B050
:10C29000BDE8F08F2668013626604CE60025E6E50D
:10C2A000002DCCD12268161DD31C0193A6EB0A03E6
:10C2B000023B5AB226609A4218BF48F00108E0E7F4
:10C2C000023222607B783F2B00F0D080931B023B30
:10C2D00016465AB239469A4218BF48F001082BE672
:10C2E000131D2360B21A043A797850B2904218BFF5
:10C2F00048F001083F2900F09E809A1B023A1E4632
:10C3000053B2934218BF48F0010839465FFA88F8E3
:10C31000B8E7B31C23600FE648784F1C0028B5D05F
:10C3200055B3D4F800B00BF10103236052F024FDA3
:10C3300005F80B007B782D2B7FF4F1AEBB785D2BDD
:10C340003FF4EDAE5C2B07F102017FF4ECAE4878D0
:10C350004F1C00289AD03DB121684B1C236052F03D
:10C360000BFD6854E8E60F46236801332360E3E6DB
:10C37000013323600F46CEE6236801332360CAE60B
:10C38000002D43D0731C23600423AB552368013375
:10C390002360636801336360BB785D2B07F10201A2
:10C3A0007FF4A8AE4FF00009D6E6BB783A2B7FF4B5
:10C3B000DCAE4FF0000B0237D946F2E6002D31D04B
:10C3C000791C61230CE6B31C2360B4E54FEA4903F2
:10C3D000B21C22605AB29A4218BF48F00108DBE64C
:10C3E000791C622333E6636801336360B31C236006
:10C3F0007B785D2B7FF47EAEA1E5B31A023B58B289
:10C400003946984218BF48F00108F5E563680133E2
:10C410006360B31C2360BB785D2B07F102017FF4DE
:10C4200069AE8CE5B31A023B58B2791C984218BF2A
:10C4300048F00108E0E59A1B023A1E4653B29342C7
:10C4400018BF48F00108791C5FFA88F81AE7791CD0
:10C45000622321E622684FEA490301330232226057
:10C460005AB29A4218BF48F0010865E5931B023B97
:10C4700016465AB2791C9A4218BF48F001085BE58B
:10C4800030B502790B780D4662F3470305F8013B9E
:10C4900085B00C468068012201A92DF029F8019B86
:10C4A0001A68C4F801209B88AB8005B030BD00BF7E
:10C4B000154B9889D98993F900C0421A92B2402A43
:10C4C00028BF4022BCF1000F05DB884218D00F497D
:10C4D000002054F003BC88420ED000B583B09968A8
:10C4E0000A48019228F0D4FB0849019A802003B041
:10C4F0005DF804EB54F0F2BB8020002154F0EEBB59
:10C500000020014654F0EABB941E0120045501208E
:10C510002DE9F04FDFB000AF0A460D4607F10801E4
:10C52000804659F035F8334A13685268391D5B1A52
:10C530009A4257D90446002841D107F1580107F122
:10C54000080059F012F904466E462846A246002C0F
:10C5500046D197F87240002C42D04EF0CDF80446F8
:10C5600007F172004EF0C8F804EB000B0BF1080263
:10C5700022F00702ADEB020D8146224629466846AD
:10C5800028F086FB4FF02F030DF8043001344A46A3
:10C590000DEB040007F1720128F07AFB97F8643084
:10C5A0000BF1010BDB060DF80BA0EA4611D4514646
:10C5B000404659F07DFA0446B5460028BDD007F143
:10C5C000080058F0ECFC204607F5BE77BD46BDE8F4
:10C5D000F08F69464046FFF79BFF04460028E6D0EF
:10C5E000B546ECE70224204607F5BE77BD46BDE818
:10C5F000F08F00BF246201200C4B187E01280DD063
:10C6000002280ED00A4B1B68D9070BD4DA030BD4CF
:10C6100013F4801F0CBF0020042070475B7EFF2BAB
:10C62000F0D070470520704701207047B86B01209B
:10C63000546501202DE9F041DFF8288006460D46BB
:10C6400000244FF6FF7738F81400B84204F1440490
:10C650002A46314601D049F0D5FBB4F5AA7FF2D184
:10C66000BDE8F081F8050120034B53F8203013B1E9
:10C670009A6801329A607047D41D0120244B53F808
:10C680002030002B42D010B4197993F805C0987966
:10C69000204C1F298ABF204A4FF0A04201F01F0101
:10C6A000D2F81025BCF11F0F22FA01F28ABF1A49F5
:10C6B0004FF0A0410CF01F0CD1F81015520021FAD8
:10C6C0000CF101F0010102F002020A4342EA80008B
:10C6D000D97914F800C093F908009A71614449B2FD
:10C6E0008142D9710ADA4042814204DCDA680021D1
:10C6F000013ADA60D9715DF8044B7047DA680021BD
:10C700000132DA60D9715DF8044B7047704700BFA1
:10C71000CC45012020820900000300502DE9F04F94
:10C720000446ABB08B464FF48C60214633F0B0F832
:10C73000002800F00183012120462CF021FF4268EF
:10C74000CDE90D4200230F938DF864300DAD082123
:10C7500009A856F003F9002328469946CDE9073386
:10C7600052F0E8FADFF814A6C8464F469DF8644038
:10C77000002C00F02981284652F0DCFAA4F10903CC
:10C78000742B00F2298201A252F823F06DC7020037
:10C790006DC70200D9CB0200D9CB02006DC70200E1
:10C7A000D9CB0200D9CB0200D9CB0200D9CB0200F1
:10C7B000D9CB0200D9CB0200D9CB0200D9CB0200E1
:10C7C000D9CB0200D9CB0200D9CB0200D9CB0200D1
:10C7D000D9CB0200D9CB0200D9CB0200D9CB0200C1
:10C7E000D9CB0200D9CB02006DC70200D9CB020021
:10C7F000FBCA0200D9CB0200D9CB0200D9CB020080
:10C80000D9CB0200D9CB0200D9CB0200D9CB020090
:10C81000D9CB0200D9CB02006DC7020061C902006A
:10C82000D9CB0200D9CB020061C9020061C9020064
:10C8300061C9020061C9020061C9020061C9020048
:10C8400061C9020061C9020061C9020061C9020038
:10C850006DC70200D9CB0200D9CB0200D9CB0200B0
:10C86000D9CB0200D9CB0200D9CB0200D9CB020030
:10C87000D9CB0200D9CB0200D9CB0200D9CB020020
:10C88000D9CB0200D9CB0200D9CB0200D9CB020010
:10C89000D9CB0200D9CB0200D9CB0200D9CB020000
:10C8A000D9CB0200D9CB0200D9CB0200D9CB0200F0
:10C8B000D9CB0200D9CB0200D9CB0200D9CB0200E0
:10C8C000D9CB0200D9CB0200D9CB0200D9CB0200D0
:10C8D000D9CB0200EDC90200D9CB02009FC90200EA
:10C8E000D9CB0200D9CB0200D9CB0200D9CB0200B0
:10C8F000D9CB0200D9CB0200D9CB0200D9CB0200A0
:10C9000077CA0200D9CB0200D9CB0200D9CB0200F2
:10C91000D9CB0200D9CB0200D9CB0200D9CB02007F
:10C920002BCA0200D9CB0200D9CB0200D9CB02001E
:10C93000D9CB0200D9CB0200E3CB0200D9CB020055
:10C94000D9CB0200D9CB0200D9CB0200D9CB02004F
:10C95000D9CB0200CFCA0200D9CB02009FC9020086
:10C9600000260A960DE02B2C08D02D2C06D0204650
:10C9700052F0FCFA0346002800F05581284652F098
:10C98000D9F9214609A855F0FFFE9DF864402E2CE8
:10C9900003D004F0DF03452BE5D10126EEE7002F9D
:10C9A00000F01A81079B002B00F0DD81013B089A03
:10C9B000079352F8237038462FF0B2F89DF8644080
:10C9C0008046002C7FF4D7AEBBF1000F00F08D81C4
:10C9D000002F00F00181079B002B40F0FD8009A88B
